S0120000636F6D62696E656475632E73726563F9
S113000012C02CC02CC02AC029C028C027C05AC383
S113001075C324C023C022C021C020C01FC01EC07D
S11300201DC01CC01BC011241FBECFE5D1E0DEBF24
S1130030CDBF10E0A0E6B0E0ECE9F8E002C0059026
S11300400D92A436B107D9F720E0A4E6B0E001C0D0
S11300501D92AA39B207E1F7CAD11EC4D1CF1F92AB
S11300600F920FB60F9211242F933F934F935F93E8
S11300706F937F938F939F93AF93BF93EF93FF936C
S113008026B330916800322720916C00223071F140
S113009018F4213041F04CC1233009F45BC0243002
S11300A009F49BC045C134FF43C18091680084FDBD
S11300B03FC1CE9B04C081E080936B0039C1809125
S11300C06B00882309F434C182E080936C00BB98F0
S11300D0B998C39AC19A8091680088608093680037
S11300E08091680082608093680022C134FF20C13F
S11300F08091680084FF28C080916A00882309F4F5
S113010017C183E080936C00BC98D698BB98B998CB
S1130110C39AC19A80916800886080936800809136
S113012068008260809368008BB780618BBF8BB757
S113013080628BBF82B5806182BD82B5886082BDDA
S113014082B5826082BDF4C0CE9BF2C081E0809310
S11301506A00EEC033FF0FC08091680083FF07C0C0
S113016081E08093670082B58D7F82BDE1C081E02C
S113017080936500DDC031FF0FC08091680081FF6E
S113018007C081E08093660082B5877F82BDD0C0BE
S113019081E080936500CCC034FFCAC02091680020
S11301A024FDC6C0209161003FEF320F30936100FF
S11301B0222309F4BDC049B3309161002091690044
S11301C046FB882780F990E002C0880F991F3A9572
S11301D0E2F7822B80936900ABC036FF0AC090918E
S11301E0680096FB992790F981E0892709F4A0C05B
S11301F007C035FF9DC08091680085FD99C080E0EF
S1130200DF9ADB9AE3EFF1E03197F1F700C00000E9
S1130210DB98DF98E3EFF1E03197F1F700C00000DD
S1130220DB9AE3EFF1E03197F1F700C00000DB98CF
S1130230E3EFF1E03197F1F700C00000DF9ADB9AB9
S1130240882311F040E401C040E287B3842B87BBCC
S113025088B3842B88BB83EF91E00197F1F700C04A
S11302600000DB98DF98E3EFF1E03197F1F700C08D
S113027000009BB381E089278BBB83EF91E001975A
S1130280F1F700C000009BB381E089278BBBE3EF4B
S1130290F1E03197F1F700C000009BB381E08927BA
S11302A08BBB83EF91E00197F1F700C000009BB393
S11302B081E089278BBBE3EFF1E03197F1F700C0D0
S11302C0000088B3942F9095892388BB80916000A7
S11302D09FEF980F90936000882321F12BB38091B6
S11302E064003091600090E002C0959587953A953E
S11302F0E2F780FB27F92BBBDB9A83EF91E00197B0
S1130300F1F700C00000DB98E3EFF1E03197F1F77B
S113031000C00000809160009FEF980F90936000F0
S11303208111DCCF88E08093600088B3482B48BB00
S113033080916500882309F440C088E080936100BF
S11303408091690020916600909164008770820F0B
S1130350892B8093640080916900209167009091BB
S11303606400220F220F220F8877820F892B80933B
S113037064008BB3897C8BBB9BB380916400880F32
S11303808670892B8BBB9BB380916400880F80732C
S1130390892B8BBB8091640006D184E080936C0030
S11303A0D79AD79ABE98BD988BB780628BBF82B517
S11303B0806482BD82B5806282BD86B3809368000A
S11303C0FF91EF91BF91AF919F918F917F916F9129
S11303D05F914F913F912F910F900FBE0F901F90FF
S11303E0189514BE81B5886181BD11BC0895CF9361
S11303F0F8DFD19AD29AD49AD59AD09AD39AD99A24
S113040089E698E10197F1F700C00000DA9AE9E67D
S1130410F8E13197F1F700C00000DC9A89E698E131
S11304200197F1F700C00000DD9AE9E6F8E13197A1
S1130430F1F700C00000D99889E698E10197F1F737
S113044000C00000DA98E9E6F8E13197F1F700C05E
S11304500000DC9889E698E10197F1F700C00000FC
S1130460DD98E9E6F8E13197F1F700C0000081E09A
S113047080936C00BC98D698BB9AB99AC398C198DB
S11304808BB780618BBF8BB780628BBF82B5806175
S113049082BD7894C19A89E698E10197F1F700C08A
S11304A0000080916C00813019F580916B008111FE
S11304B01FC081E061E052E040E038E092B59F7EE9
S11304C092BD98B3811120C02EC0922B98BBE9E64F
S11304D0F8E13197F1F700C000009BB393279BBB71
S11304E090916C00913021F490916B00992331F339
S11304F08BB3807C8BBBC1E003C08BB38C278BBBDD
S113050060D0892BD1F71EC09D7F98BBE9E6F8E146
S11305103197F1F700C0000082B5806182BD28B335
S1130520842F932FD2CF977F98BB89E698E10197C8
S1130530F1F700C0000082B5806182BD28B3862F28
S1130540952FC3CF87E893E10197F1F700C000002E
S113055080E090E0CF91089580919900823039F045
S1130560833019F0813071F407C075D0089573D0C9
S11305704DD01092990008956ED08093620010922D
S11305809900089568D080939900089589B3869559
S1130590877080936200089580919900F7DF8091BD
S11305A0620049D0089532D08CEA92E0909396008C
S11305B0809395008CEC92E0909394008093930048
S11305C0089580919900833029F41092990080E075
S11305D090E008958091950090919600892B69F0A0
S11305E0759B0EC054D0882371F0E0919500F09172
S11305F09600099581E090E0089581E090E00895E7
S113060081E090E0089581E090E0089510927F00E9
S11306101092800010926D0010926E0080939200F0
S113062087B3856087BBC29AC09AB89888EA8DB9A7
S113063080EF8EB9089520916E002F5F2F709091F6
S11306406D002917E1F3E22FF0E0E159FF4F8083B9
S113065020936E0008959091800080917F009817F8
S1130660D1F380917F008F5F8F7080937F00E09142
S11306707F00F0E0EF57FF4F8081089520918000C4
S113068090917F0081E0291301C080E0089590914A
S1130690800080917F00981799F09091800080915C
S11306A07F00981738F48091800090917F00805FDC
S11306B0891B08958091800090917F00891B089583
S11306C080E008951F920F920FB60F9211248F931A
S11306D010929100B898B29B02C0B09BFCCFB09925
S11306E003C088EF8DB902C088EA8DB980EF8EB956
S11306F08F910F900FBE0F901F9018951F920F921D
S11307000FB60F9211242F933F934F935F936F93E0
S11307107F938F939F93AF93BF93CF93DF93EF9385
S1130720FF9380919100823009F473C028F48823E8
S113073059F08130A1F19DC0843009F472C038F1C0
S1130740853009F475C095C08FB1882331F09FB10D
S1130750969580919200981315C0E0919700F091BE
S11307609800309709F00995789B04C081E0809344
S1130770910003C084E0809391001FB8B89A8EE77B
S11307808EB977C088EA8DB980E78EB972C08FB10F
S1130790882329F088EA8DB980E78EB96AC08091F0
S11307A0950090919600892B51F068DF882339F0E9
S11307B0C0919500D09196006ADFFE010995E09101
S11307C09300F0919400309709F0099590916E0090
S11307D080916D009817A1F080916D008F5F8F70EC
S11307E080936D00E0916D00F0E0E159FF4F80814E
S11307F08FB982E080939100B89A80E78EB939C0AE
S1130800B8981FB88EE78EB988EA8DB980E78EB99B
S113081030C083E080939100B8981FB88EE78EB9FA
S113082028C085E080939100B89880E78EB921C0F4
S1130830809180008F5F8F70809380009091800002
S113084080917F00981307C080918000815F8F7032
S11308508093800007C0E09180008FB1F0E0EF57F3
S1130860FF4F808384E0809391001FB8B89A8EE78D
S11308708EB9FF91EF91DF91CF91BF91AF919F918D
S11308808F917F916F915F914F913F912F910F9035
S10F08900FBE0F901F901895F894FFCF36
S107089C0808110033
S9030000FC
