S0120000636F6D62696E656475632E73726563F9
S113000012C02AC029C028C027C026C025C024C0C9
S113001023C022C021C021C01FC01EC01DC0F9C200
S113002014C31AC019C011241FBECFEDCDBF10E0F8
S1130030A0E6B0E0EAEEF7E002C005900D92A43627
S1130040B107D9F720E0A4E6B0E001C01D92AA39B7
S1130050B207E1F79CD1C7C3D3CF1F920F920FB65B
S11300600F9211242F933F934F935F936F937F933A
S11300708F939F93AF93BF93EF93FF9326B33091E6
S11300806800322720916C00223071F118F421307D
S113009041F020C1233009F458C0243009F497C03A
S11300A019C132FF17C18091680082FD13C1C89B3A
S11300B004C081E080936B000DC180916B008823A4
S11300C009F408C182E080936C00B998B898C19A89
S11300D0C09A809168008260809368008091680073
S11300E0816080936800F6C032FFF4C0809168009C
S11300F082FF25C080916A00882309F4EBC083E065
S113010080936C00BA98D098B998B898C19AC09A5C
S113011080916800826080936800809168008160AB
S1130120809368008BB780628BBF80B5846080BD8C
S113013080B5826080BD80B5816080BDCBC0C89B26
S1130140C9C081E080936A00C5C031FF0FC08091AF
S1130150680081FF07C081E08093670080B58E7FCF
S113016080BDB8C081E080936500B4C030FF0FC08B
S11301708091680080FF07C081E08093660080B5AD
S11301808D7F80BDA7C081E080936500A3C032FF4E
S1130190A1C02091680022FD9DC0209161003FEF25
S11301A0320F30936100222309F494C049B3309193
S11301B0610020916900842F817090E002C0880F53
S11301C0991F3A95E2F7822B8093690083C034FF2C
S11301D009C0909168009295917081E0892709F493
S11301E079C007C033FF76C08091680083FD72C078
S11301F080E0D99AC69AE1EEF4E03197F1F700C0B5
S11302000000C698D998E1EEF4E03197F1F700C008
S11302100000C69AE1EEF4E03197F1F700C0000067
S1130220C698E1EEF4E03197F1F700C00000D99AE6
S1130230C69A882311F050E101C058E087B3852B9A
S113024087BB88B3852B88BB81EE94E00197F1F7D7
S113025000C00000C698D998E1EEF4E03197F1F7B8
S113026000C0000088B3952F9095892388BB8091A6
S113027060009FEF980F90936000882341F14BB387
S1130280209164008091600030E0B90102C075954E
S113029067958A95E2F7CB018270942F9D7F892B15
S11302A08BBBC69A81EE94E00197F1F700C0000081
S11302B0C698E1EEF4E03197F1F700C000008091B8
S11302C060009FEF980F909360008111D8CF88B39E
S11302D0582B58BB80916500882309F444C088E0FA
S11302E08093610080916900209166009091640080
S11302F08770820F892B809364008091690020911C
S1130300670090916400220F220F220F8877820FDA
S1130310892B8093640092B380E2892782BB82B3E5
S1130320807F82BB92B3809164008370892B82BBEF
S113033092B38091640088718695892B82BB8091E9
S1130340640090E0DED084E080936C00BE9AD19A81
S1130350BC98BB988BB780628BBF80B5806180BD31
S113036080B5886080BD86B380936800FF91EF916B
S1130370BF91AF919F918F917F916F915F914F91B9
S11303803F912F910F900FBE0F901F901895889A50
S1130390899A8A9A8B9A8E9ABD9A80E090E041E07D
S11303A050E0E9E6F8E13197F1F700C0000062B3EC
S11303B09A01082E02C0220F331F0A94E2F7262B5B
S11303C022BB01968430910561F780E090E041E022
S11303D050E0E9E6F8E13197F1F700C0000062B3BC
S11303E09A01082E02C0220F331F0A94E2F72095C7
S11303F0262322BB01968430910559F781E080932E
S11304006C00BA98D098B99AB89AC198C0988BB72A
S113041080628BBF80B5846080BD7894C09A89E681
S113042098E10197F1F700C0000080916C008130E1
S113043019F580916B0081111FC081E060E052E0EA
S113044041E030E290B59B7F90BD98B38823C1F022
S113045026C0922B98BBE9E6F8E13197F1F700C08A
S1130460000092B3932792BB90916C00913021F4D9
S113047090916B00992331F353D0892BE9F71EC077
S11304809D7F98BB89E698E10197F1F700C00000D1
S113049080B5846080BD28B3842F942FDACF9E7FEB
S11304A098BBE9E6F8E13197F1F700C0000080B5A8
S11304B0846080BD28B3862F952FCBCF80E090E059
S11304C0089580919900809162005CD00895809194
S11304D09900823039F0833019F0813071F407C00B
S11304E061D008955FD039D01092990008955AD000
S11304F08093620010929900089554D080939900DB
S1130500089584E02AD087E692E090939600809341
S1130510950081E692E0909394008093930008956F
S113052080919900833089F0809195009091960094
S1130530892B69F0759B0DC051D0882361F0E0913F
S11305409500F09196000995089580E0089581E062
S1130550089581E0089581E0089510927F0010923B
S1130560800010926D0010926E008093920087B309
S1130570806A87BBC79AC59ABD9888EA8DB980EF0F
S11305808EB9089520916E002F5F2F7090916D00A9
S11305902917E1F3E22FF0E0E159FF4F8083209324
S11305A06E0008959091800080917F009817D1F398
S11305B080917F008F5F8F7080937F00E0917F0038
S11305C0F0E0EF57FF4F80810895209180009091D3
S11305D07F0081E0291301C080E00895909180009C
S11305E080917F00981799F09091800080917F000E
S11305F0981738F48091800090917F00805F891B68
S113060008958091800090917F00891B089580E077
S113061008951F920F920FB60F9211248F93109288
S11306209100BD98B79B02C0B59BFCCFB59903C0A0
S113063088EF8DB902C088EA8DB980EF8EB98F91A9
S11306400F900FBE0F901F9018951F920F920FB628
S11306500F9211242F933F934F935F936F937F9344
S11306608F939F93AF93BF93CF93DF93EF93FF93B6
S113067080919100823009F473C028F4882359F0E2
S11306808130A1F19DC0843009F472C038F1853005
S113069009F475C095C08FB1882331F09FB1969548
S11306A080919200981315C0E0919700F091980002
S11306B0309709F00995789B04C081E080939100FC
S11306C003C084E0809391001FB8BD9A8EE78EB971
S11306D077C088EA8DB980E78EB972C08FB188235C
S11306E029F088EA8DB980E78EB96AC080919500B7
S11306F090919600892B51F068DF882339F0C091DE
S11307009500D09196006ADFFE010995E09193006F
S1130710F0919400309709F0099590916E008091C2
S11307206D009817A1F080916D008F5F8F7080939A
S11307306D00E0916D00F0E0E159FF4F80818FB9C9
S113074082E080939100BD9A80E78EB939C0BD984C
S11307501FB88EE78EB988EA8DB980E78EB930C0AC
S113076083E080939100BD981FB88EE78EB928C0AE
S113077085E080939100BD9880E78EB921C0809177
S113078080008F5F8F7080938000909180008091B3
S11307907F00981307C080918000815F8F708093E1
S11307A0800007C0E09180008FB1F0E0EF57FF4F69
S11307B0808384E0809391001FB8BD9A8EE78EB940
S11307C0FF91EF91DF91CF91BF91AF919F918F9165
S11307D07F916F915F914F913F912F910F900FBE39
S10D07E00F901F901895F894FFCFB6
S10707EA08081100E6
S9030000FC
